:020000040800F2
:1000000000200020A93A0008510B0008570B0008F7
:1000100000000000000000000000000000000000E0
:100020000000000000000000000000005D0B000860
:100030000000000000000000670B0008710B0008C2
:10004000F93A0008F93A0008F93A0008F93A0008C4
:100050007F0B0008F93A0008F93A0008F93A00085D
:10006000F93A0008F93A0008F93A0008890B000843
:10007000F93A0008F93A000800000000F93A0008CF
:1000800000000000F93A0008000000000000000035
:10009000F93A000800000000F93A0008F93A0008AF
:1000A000F93A0008F93A0008F93A0008F93A000864
:1000B000AD0B0008F93A0008F93A0008F93A0008CF
:1000C00010B5064C2378002B07D1054B002B02D02E
:1000D000044800E000BF0123237010BD140000207D
:1000E00000000000543B0008044B10B5002B03D067
:1000F0000349044800E000BF10BDC04600000000F6
:1001000018000020543B0008002243088B4274D39F
:1001100003098B425FD3030A8B4244D3030B8B4208
:1001200028D3030C8B420DD3FF22090212BA030C11
:100130008B4202D31212090265D0030B8B4219D3F2
:1001400000E0090AC30B8B4201D3CB03C01A524112
:10015000830B8B4201D38B03C01A5241430B8B425A
:1001600001D34B03C01A5241030B8B4201D30B0343
:10017000C01A5241C30A8B4201D3CB02C01A52416A
:10018000830A8B4201D38B02C01A5241430A8B422D
:1001900001D34B02C01A5241030A8B4201D30B0216
:1001A000C01A5241CDD2C3098B4201D3CB01C01A30
:1001B000524183098B4201D38B01C01A524143093A
:1001C0008B4201D34B01C01A524103098B4201D328
:1001D0000B01C01A5241C3088B4201D3CB00C01A95
:1001E000524183088B4201D38B00C01A524143080D
:1001F0008B4201D34B00C01A5241411A00D2014632
:10020000524110467047FFE701B5002000F006F8A4
:1002100002BDC0460029F7D076E770477047C04658
:10022000002B11D1002A0FD1002900D1002802D0C3
:100230000021C943081C07B4024802A140180290DB
:1002400003BDC046D9FFFFFF03B4684601B502985D
:1002500000F030F8019B9E4602B00CBC7047C046CF
:10026000F0B5CE46474615042D0C2E0080B5070488
:10027000140C3F0C9946030C7E435D436743634374
:100280007F19340CE4199C46A54203D980235B02F4
:100290009846C4444B46514343433604360C250C20
:1002A00024046544A4195918491920000CBC90462F
:1002B0009946F0BDF0B557464E464546DE46E0B598
:1002C000040083B00D00924699468B422FD82CD063
:1002D0004946504600F0AEF829000600200000F024
:1002E000A9F8331A9846203B9B4600D574E0534644
:1002F0005A4693401F005346424693401E00AF4269
:1003000029D826D05B46A41BBD41002B00DA79E03A
:10031000002200230092019301235A469340019347
:10032000012342469340009319E08242D0D9002233
:100330000023009201930C9B002B01D01C605D6098
:100340000098019903B03CBC90469946A246AB4642
:10035000F0BDA342D6D90022002300920193434668
:10036000002BE8D0FB0772081A4346467B080EE0D4
:10037000AB4201D1A2420CD8A41A9D4101202419FC
:100380006D410021013E24184D41002E06D0AB42A4
:10039000EED9013E24196D41002EF8D15B4600983C
:1003A000019900196941002B22DB2B005A46D340EA
:1003B0002A004446E2401C005B461500002B2CDB63
:1003C00026009E40330026004746BE403200801A79
:1003D000994100900191AEE7424620239B1A524674
:1003E000DA40414613004A468A4017001F4382E71D
:1003F000424620239B1A2A0046469A402300F34097
:100400001343D5E74246202300219B1A0022009186
:1004100001920122DA40019282E74246202326001F
:100420009B1ADE402F00B446974066463B0033439C
:10043000C9E7C04610B5002903D100F007F8203005
:1004400002E0081C00F002F810BDC0461C21012388
:100450001B04984201D3000C10391B0A984201D3A7
:10046000000A08391B09984201D30009043902A285
:10047000105C40187047C0460403020201010101EC
:10048000000000000000000080B500AF00F0A0FBFD
:1004900000F05CF800F024F900F004F900F0D2F864
:1004A000274B1B68264A1268126820210A431A60EB
:1004B0002449234B0922180002F094F821492048CE
:1004C0000A23092201F0E6FF1E4B1A781D4B1A7011
:1004D0001C4B5A781B4B5A701A4B9A78194B9A70CE
:1004E000184BDA78174BDA70164B1A79154B1A71CC
:1004F000144B5A79134B5A71124B9A79114B9A71CA
:10050000114B1B780133DAB20F4B1A70FA235B00E0
:10051000180000F0CDFB0B4B1B783B2BCED10020FD
:1005200000F0AAF900F024F900F07AF900F08EF951
:1005300000F0D6F900F0BEF900F0E8F9BEE7C046D9
:10054000E0000020000000203000002080B59CB0BA
:1005500000AF3823FB18180038231A00002103F0DD
:10056000F1FA2423FB18180014231A00002103F0C9
:10057000E9FA3B00180024231A00002103F0E2FAF4
:100580002E4B2E4A12682E490A40802109010A4347
:100590001A603823FB1801221A603823FB188022C6
:1005A00052025A603823FB1802229A623823FB1841
:1005B00080225202DA623823FB18C02212031A6327
:1005C0003823FB188022D2035A633823FB18180003
:1005D00000F0CCFF031E01D000F0EEF92423FB183D
:1005E0000F221A602423FB1803225A602423FB18CD
:1005F00000229A602423FB180022DA602423FB18CF
:1006000000221A612423FB180121180001F070FB5D
:10061000031E01D000F0D0F93B0002221A603B001B
:1006200000221A613B00180001F082FD031E01D078
:1006300000F0C2F9C046BD461CB080BD007000404D
:10064000FFE7FFFF80B500AF144B154A1A60134B4C
:10065000E12252025A60114B00229A600F4B002295
:10066000DA600E4B00221A610C4B0C225A610B4BC4
:1006700000229A61094B0022DA61084B00221A62BB
:10068000064B00225A62054B180001F0AFFE031E14
:1006900001D000F091F9C046BD4680BDE0000020C9
:1006A0000044004080B582B000AF0C4B0B4A126B87
:1006B00001210A431A63094B1B6B012213407B6023
:1006C0007B68002200210B2000F0C0FB0B2000F013
:1006D000D3FBC046BD4602B080BDC04600100240FC
:1006E00080B588B000AF0C23FB18180014231A0043
:1006F000002103F027FA1D4B1C4AD26A80210A43CD
:10070000DA621A4BDB6A80221340BB60BB68174B6E
:10071000164AD26A01210A43DA62144BDB6A0122CB
:1007200013407B607B68A023DB050022202118009A
:1007300000F0E4FE0C23FB1820221A600C23FB18A7
:1007400001225A600C23FB1800229A600C23FB182C
:100750000222DA600C23FA18A023DB05110018002E
:1007600000F056FDC046BD4608B080BD00100240F6
:1007700080B500AF0F4B5B78372B18D10D4B9B78B2
:100780002A2B14D10B4BDB782A2B10D1094B1B7968
:100790002A2B0CD1074B5B792A2B08D1054B9B796F
:1007A0002A2B04D1072000F067F800F005F8C046B6
:1007B000BD4680BD0000002080B500AF084BDB794E
:1007C0000D2B07D1064B1B7A0A2B03D1054B0122B7
:1007D0001A7002E0034B00221A70C046BD4680BD6D
:1007E000000000203100002080B584B000AF7860A8
:1007F0000223FB600BE0FB68023B7A68D3180749D1
:10080000FA688A1812781A70FB680133FB60FB687B
:10081000062BF0DDC046BD4604B080BD00000020C0
:1008200080B500AF074B5B78322B08D1064B180020
:10083000FFF7DAFF022000F01FF8FFF7BDFFC04608
:10084000BD4680BD000000208400002080B500AFC0
:10085000074B5B78342B08D1064B1800FFF7C4FF19
:10086000042000F009F8FFF7A7FFC046BD4680BD91
:1008700000000020D800002080B584B000AF020046
:10088000FB1D1A700023FB600BE0A023DB05202179
:10089000180000F050FEC82000F00AFAFB6801338F
:1008A000FB60FB1D1A78FB689A42EEDCC046BD4631
:1008B00004B080BD80B500AF074B5B78352B08D105
:1008C000064B1800FFF790FF0520FFF7D5FFFFF755
:1008D00073FFC046BD4680BD0000002064010020BB
:1008E00080B500AF074B5B78382B08D1064B18005A
:1008F000FFF77AFF0820FFF7BFFFFFF75DFFC04655
:10090000BD4680BD000000207C00002080B500AF07
:100910001B4B5B78382B2CD11A4B01221A701A4BC7
:100920001800FFF761FF184B5B79522B08D1174B6A
:1009300001221A700620FFF79FFFFFF73DFF1BE023
:10094000114B5B794C2B08D1114B01221A700620F8
:10095000FFF792FFFFF730FF0EE00C4B00221A70FA
:100960000B4B00221A70074B00221A70FFF724FF6E
:1009700002E0044B00221A70C046BD4680BDC0464E
:1009800000000020690100207C000020D50000202C
:10099000D400002080B582B000AF78600449054BD8
:1009A0000922180001F01EFEC046BD4602B080BDFF
:1009B00000000020E000002080B500AF72B6FEE726
:1009C00080B500AF0B4B0B4A526B01210A435A63AF
:1009D000084B084A926B802149050A439A6300221A
:1009E0000021042000F032FA042000F045FAC0464D
:1009F000BD4680BD0010024080B588B000AF786071
:100A00000C23FB18180014231A00002103F09AF895
:100A10007B681B68484A934200D088E0474B474AAE
:100A2000926B802189020A439A63444B434AD26AFB
:100A300001210A43DA62414BDB6A01221340BB60A9
:100A4000BB680C23FB180C221A600C23FB18022233
:100A50005A600C23FB1800229A600C23FB18032217
:100A6000DA600C23FB1804221A610C23FA18A02365
:100A7000DB051100180000F0CBFB314B314A1A6046
:100A80002F4B04225A602E4B00229A602C4B0022DE
:100A9000DA602B4B80221A61294B00225A61284BC5
:100AA00000229A61264B2022DA61254B00221A622D
:100AB000234B180000F0FEF9031E01D0FFF77CFF66
:100AC0007B681F4A1A671E4B7A689A621E4B1F4A40
:100AD0001A601D4B04225A601B4B10229A601A4B5D
:100AE0000022DA60184B80221A61174B00225A61EB
:100AF000154B00229A61144B0022DA61124B00223E
:100B00001A62114B180000F0D5F9031E01D0FFF74F
:100B100053FF7B680C4ADA660B4B7A689A620022B4
:100B200000211C2000F092F91C2000F0A5F9C0461D
:100B3000BD4608B080BDC0460044004000100240E1
:100B400034000020580002408C0000204400024085
:100B500080B500AFFEE780B500AFFEE780B500AF1F
:100B6000C046BD4680BD80B500AFC046BD4680BD15
:100B700080B500AF00F080F8C046BD4680BD80B5AE
:100B800000AFC046BD4680BD80B500AF054B180024
:100B900000F090FA044B180000F08CFAC046BD46F5
:100BA00080BDC0468C0000203400002080B500AF1E
:100BB000034B180001F07CFDC046BD4680BDC04619
:100BC000E000002080B500AFC046BD4680BD0000FB
:100BD00080B582B000AFFB1D00221A700B4B0B4A90
:100BE000126840210A431A60032000F011F8031E26
:100BF00003D0FB1D01221A7001E0FFF7E1FEFB1D8F
:100C00001B781800BD4602B080BDC04600200240DF
:100C100090B583B000AF7860144B1C68144B1B7800
:100C20001900FA239800FFF76FFA0300190020005B
:100C3000FFF76AFA0300180000F02EF9031E01D036
:100C400001230FE07B68032B0BD8796801235B42FB
:100C50000022180000F0FAF8064B7A681A600023A8
:100C600000E001231800BD4603B090BD080000203D
:100C7000100000200C00002080B500AF054B1B7851
:100C80001A00054B1B68D218034B1A60C046BD46BC
:100C900080BDC046100000206C01002080B500AF70
:100CA000024B1B681800BD4680BDC0466C01002089
:100CB00080B584B000AF7860FFF7F0FF0300BB6041
:100CC0007B68FB60FB68013305D0094B1B781A0079
:100CD000FB689B18FB60C046FFF7E0FF0200BB68A3
:100CE000D21AFB689A42F7D3C046BD4604B080BD15
:100CF0001000002080B582B000AF0200FB1D1A700A
:100D0000FB1D1B787F2B09D8064BFA1D12781100AA
:100D10001F220A40012191400A001A60C046BD46C8
:100D200002B080BD00E100E0B0B582B000AF0200CB
:100D30003960FB1D1A70FB1D1B787F2B28D82F4CA8
:100D4000FB1D1B785BB29B082C49FA1D127852B22E
:100D50009208C03292005258F91D09780800032108
:100D60000140C900FF2088400100C94311403A6892
:100D70009201FF201040FA1D1278150003222A402C
:100D8000D200904002000A43C0339B001A5131E068
:100D90001B4CFB1D1B781A000F231340083B9908BE
:100DA000174AFB1D1B7818000F230340083B9B08C4
:100DB00006339B00D31804331B68FA1D1278100009
:100DC00003220240D200FF2090400200D2431A408A
:100DD0003B689B01FF201840FB1D1B781D0003236F
:100DE0002B40DB00984003001A438B1D9B00E31847
:100DF00004331A60C046BD4602B0B0BD00E100E059
:100E000000ED00E080B582B000AF78607B68013B08
:100E10000C4A934201D9012310E00B4B7A68013A46
:100E20005A6001235B4203211800FFF77DFF064B48
:100E300000229A60044B07221A6000231800BD4666
:100E400002B080BDFFFFFF0010E000E080B584B07D
:100E500000AFB9607A600F23FB18021C1A70BA68E1
:100E60000F23FB181B785BB211001800FFF75CFF23
:100E7000C046BD4604B080BD80B582B000AF020060
:100E8000FB1D1A70FB1D1B785BB21800FFF732FFC9
:100E9000C046BD4602B080BD80B582B000AF78606C
:100EA0007B681800FFF7AEFF03001800BD4602B0D4
:100EB00080BD000090B585B000AF78607B68002BE6
:100EC00001D1012362E07B681B68324A9446634487
:100ED00014211800FFF718F903009A007B685A6480
:100EE0007B682D4A1A647B682522022199547B680D
:100EF0001B681B68FB60FB68284A1340FB607B682B
:100F00009A687B68DB681A437B681B691A437B68B5
:100F10005B691A437B689B691A437B68DB691A43E8
:100F20007B681B6A1343FA681343FB607B681B688A
:100F3000FA681A607B689A688023DB019A4219D0AC
:100F4000174A174B19687B685B6C1C2003400F2005
:100F500098400300DB430B401360114A104B1968A3
:100F60007B6858687B685B6C1C24234098400300B6
:100F70000B4313607B680022DA637B682522012122
:100F800099547B6824220021995400231800BD46FF
:100F900005B090BDF8FFFDBF000002400F80FFFFCD
:100FA000A800024080B584B000AF78600F23FB1822
:100FB00000221A707B6825229B5CDBB2022B08D0D2
:100FC0007B680422DA637B68242200219954012380
:100FD00024E07B681B687A68126812680E218A43D5
:100FE0001A607B681B687A681268126801218A435C
:100FF0001A607B681B6C7A68526C1C210A400121C4
:1010000091400A005A607B682522012199547B682F
:101010002422002199540F23FB181B781800BD4689
:1010200004B080BD80B584B000AF78600F23FB189A
:1010300000221A707B6825229B5CDBB2022B07D052
:101040007B680422DA630F23FB1801221A702AE05E
:101050007B681B687A68126812680E218A431A60DE
:101060007B681B687A681268126801218A431A60DB
:101070007B681B6C7A68526C1C210A4001219140EC
:101080000A005A607B682522012199547B6824223A
:10109000002199547B689B6B002B04D07B689B6B71
:1010A0007A68100098470F23FB181B781800BD467C
:1010B00004B080BD80B584B000AF78607B681B6CE5
:1010C0001B68FB607B681B681B68BB607B685B6C94
:1010D0001C22134004229A401300FA68134026D0C1
:1010E000BB680422134022D07B681B681B68202247
:1010F000134007D17B681B687A6812681268042164
:101100008A431A607B681B6C7A68526C1C210A4007
:10111000042191400A005A607B681B6B002B00D1B0
:1011200071E07B681B6B7A68100098476BE07B6806
:101130005B6C1C22134002229A401300FA68134091
:101140002DD0BB680222134029D07B681B681B6826
:10115000202213400BD17B681B687A6812681268E2
:101160000A218A431A607B682522012199547B68F1
:101170001B6C7A68526C1C210A40022191400A00C3
:101180005A607B682422002199547B68DB6A002B1B
:1011900039D07B68DB6A7A681000984733E07B6857
:1011A0005B6C1C22134008229A401300FA6813401B
:1011B0002AD0BB680822134026D07B681B687A6857
:1011C000126812680E218A431A607B681B6C7A6869
:1011D000526C1C210A40012191400A005A607B6830
:1011E0000122DA637B682522012199547B6824223D
:1011F000002199547B685B6B002B05D07B685B6B8F
:101200007A6810009847C046C046BD4604B080BD0D
:1012100080B586B000AF7860396000237B61002321
:10122000FB6000233B614FE13B681B6801217A6949
:1012300091400A001340FB60FB68002B00D140E1A5
:101240003B685B6803221340012B05D03B685B6859
:1012500003221340022B30D17B689B683B617B6982
:101260005B0003229A401300DA433B6913403B6161
:101270003B68DA687B695B009A4013003A69134364
:101280003B617B683A699A607B685B683B610122DD
:101290007B699A401300DA433B6913403B613B682A
:1012A0005B681B0901221A407B699A4013003A6966
:1012B00013433B617B683A695A603B685B68032271
:1012C0001340032B17D07B68DB683B617B695B00B5
:1012D00003229A401300DA433B6913403B613B68A9
:1012E0009A687B695B009A4013003A6913433B613B
:1012F0007B683A69DA603B685B6803221340022B23
:1013000023D17B69DA087B6808329200D3583B61AD
:101310007B69072213409B000F229A401300DA4397
:101320003B6913403B613B681A697B6907210B40AD
:101330009B009A4013003A6913433B617B69DA08CA
:101340007B68083292003969D1507B681B683B6129
:101350007B695B0003229A401300DA433B69134028
:101360003B613B685B6803221A407B695B009A40E3
:1013700013003A6913433B617B683A691A603B6822
:101380005A68C0239B02134000D19AE0544B544A40
:10139000526B01210A435A63524A7B699B0802330C
:1013A0009B009B583B617B69032213409B000F22EB
:1013B0009A401300DA433B6913403B617A68A023EB
:1013C000DB059A4219D07B68474A934213D07B6869
:1013D000464A93420DD07B68454A934207D07B68CA
:1013E000444A934201D1052308E0062306E0032383
:1013F00004E0022302E0012300E000237A690321D4
:101400000A40920093403A6913433B6135497B6936
:101410009B0802339B003A695A50374B1B683B616B
:10142000FB68DA433B6913403B613B685A688023A1
:101430005B02134003D03A69FB6813433B612E4BB8
:101440003A691A602C4B5B683B61FB68DA433B6985
:1014500013403B613B685A6880239B02134003D0D2
:101460003A69FB6813433B61234B3A695A60224B4C
:101470009B683B61FB68DA433B6913403B613B6817
:101480005A6880235B03134003D03A69FB68134317
:101490003B61194B3A699A60174BDB683B61FB680B
:1014A000DA433B6913403B613B685A6880239B03E6
:1014B000134003D03A69FB6813433B610E4B3A6912
:1014C000DA607B6901337B613B681A687B69DA40CB
:1014D000131E00D0A8E6C046BD4606B080BDC0467B
:1014E00000100240000001400004005000080050BD
:1014F000000C0050001C00500004014080B582B078
:1015000000AF786008001100BB1C021C1A807B1C15
:101510000A1C1A707B1C1B78002B04D0BB1C1A8879
:101520007B689A6103E0BB1C1A887B689A62C0469C
:10153000BD4602B080BD80B584B000AF78600A00BF
:10154000BB1C1A807B685B69FB60BB1C1B88FA684C
:1015500013401A04FB68DB43B91C09880B401A438B
:101560007B689A61C046BD4604B080BD90B58BB023
:1015700000AF78607B68002B02D1012300F0AEFB46
:10158000CF4BDB680C2213403B62CD4BDA688023E3
:101590005B021340FB617B681B680122134000D192
:1015A0007EE03B6A082B07D03B6A0C2B12D1FA690C
:1015B00080235B029A420DD1C14B1A6880239B02A3
:1015C000134000D16BE07B685B68002B67D101237F
:1015D00000F084FB7B685A6880235B029A4207D143
:1015E000B74BB74A1268802149020A431A6027E0C4
:1015F0007B685A68A023DB029A420ED1B04BB04AF6
:1016000012688021C9020A431A60AD4BAC4A1268C5
:10161000802149020A431A6012E0A94BA84A1268C5
:10162000A8490A401A60A64B1A6880235B0213403F
:10163000FB60FB68A24BA24A1268A3490A401A60E9
:101640007B685B68002B15D0FFF728FB0300BB61AC
:1016500009E0FFF723FB0200BB69D31A642B02D910
:10166000032300F03BFB964B1A6880239B02134038
:10167000EFD015E0FFF712FB0300BB6108E0FFF7B6
:101680000DFB0200BB69D31A642B01D9032325E3A8
:101690008B4B1A6880239B021340F0D100E0C046B8
:1016A0007B681B680222134000D18BE07B68DB68FB
:1016B0007B613B6A042B05D03B6A0C2B3FD1FB6955
:1016C000002B3CD17E4B1B680422134004D07B6965
:1016D000002B01D1012301E3794A794B5B687B49F7
:1016E00019407B681B691B020B435360744B744A9F
:1016F000126809218A4311007A690A431A6000F0CE
:101700003FFC01006E4BDB681B090F221340704A3F
:10171000D35C0A00DA406F4B1A606F4B1B681322D0
:10172000BC181800FFF774FA030023701323FB188A
:101730001B78002B46D01323FB181B78CEE27B6965
:10174000002B26D05E4B5E4A126809218A431100A5
:101750007A690A431A60FFF7A1FA0300BB6108E047
:10176000FFF79CFA0200BB69D31A022B01D90323AD
:10177000B4E2534B1B6804221340F1D0504A504B43
:101780005B68524919407B681B691B020B4353601D
:1017900018E04B4B4A4A126801218A431A60FFF74E
:1017A0007DFA0300BB6108E0FFF778FA0200BB692D
:1017B000D31A022B01D9032390E2414B1B68042268
:1017C0001340F1D17B681B681022134000D1A1E0C7
:1017D0003B6A002B41D13A4B1A6880239B0013408F
:1017E00005D07B68DB69002B01D1012376E2344A06
:1017F000334B5B68394919407B685B6A0B43536024
:101800002F4A2F4B5B681B02190A7B681B6A1B0659
:101810000B4353607B685B6A5B0B013380221202CF
:101820009A40274BDB681B090F210B402849CB5CF2
:10183000DA40284B1A60284B1B681322BC1818008A
:10184000FFF7E6F9030023701323FB181B78002B26
:1018500060D01323FB181B7840E27B68DB69002B08
:101860003ED0174B164A1268802149000A431A607D
:10187000FFF714FA0300BB6108E0FFF70FFA02005C
:10188000BB69D31A022B01D9032327E20C4B1A6838
:1018900080239B001340F0D0094A094B5B680F4935
:1018A00019407B685B6A0B435360054A044B5B68D5
:1018B0001B02190A7B681B6A1B060B43536029E055
:1018C00000100240FFFFFEFFFFFFFBFFFFE0FFFFF6
:1018D0006C3B0008080000200C000020FF1FFFFFE9
:1018E000BD4BBD4A1268BD490A401A60FFF7D6F9E0
:1018F0000300BB6108E0FFF7D1F90200BB69D31A0E
:10190000022B01D90323E9E1B34B1A6880239B0022
:101910001340F0D17B681B680822134036D07B68E7
:101920005B69002B19D0AC4BAB4A126D01210A4305
:101930001A65FFF7B3F90300BB6108E0FFF7AEF9E2
:101940000200BB69D31A022B01D90323C6E1A24BC3
:101950001B6D02221340F1D018E09F4B9E4A126D7E
:1019600001218A431A65FFF799F90300BB6108E07A
:10197000FFF794F90200BB69D31A022B01D90323A4
:10198000ACE1954B1B6D02221340F1D17B681B68C3
:101990000422134000D1AFE02723FB1800221A7065
:1019A0008D4B9A6B80235B0513400AD18A4B8A4A80
:1019B000926B802149050A439A632723FB18012271
:1019C0001A70874B1A6880235B0013401AD1844B2E
:1019D000834A1268802149000A431A60FFF75EF9C2
:1019E0000300BB6108E0FFF759F90200BB69D31A95
:1019F000642B01D9032371E1794B1A6880235B00C2
:101A00001340F0D07B689A6880235B009A4207D12C
:101A1000714B714A126D802149000A431A6531E009
:101A20007B689B68002B0CD16B4B6B4A126D6B492A
:101A30000A401A65684B684A126D6A490A401A657D
:101A400020E07B689A68A023DB009A420ED1624BAB
:101A5000614A126D8021C9000A431A655E4B5E4AD5
:101A6000126D802149000A431A650BE05A4B5A4A0D
:101A7000126D5A490A401A65574B574A126D594917
:101A80000A401A657B689B68002B15D0FFF706F9A2
:101A90000300BB6109E0FFF701F90200BB69D31A3B
:101AA000514A934201D9032318E14B4B1A6D80230D
:101AB0009B001340EFD014E0FFF7F0F80300BB6188
:101AC00009E0FFF7EBF80200BB69D31A464A9342DC
:101AD00001D9032302E1404B1A6D80239B00134080
:101AE000EFD12723FB181B78012B05D13A4B3A4A3B
:101AF000926B3E490A409A637B681B682022134020
:101B000049D07B689B69002B26D0334B324A9268C0
:101B100001210A439A60304B2F4A526B01210A433C
:101B20005A63334B324A126A802189010A431A628E
:101B3000FFF7B4F80300BB6108E0FFF7AFF802005D
:101B4000BB69D31A022B01D90323C7E0224B9B6840
:101B500002221340F1D01EE01F4B1F4A9268012160
:101B60008A439A60224B224A126A22490A401A6228
:101B7000FFF794F80300BB6108E0FFF78FF802005D
:101B8000BB69D31A022B01D90323A7E0124B9B6830
:101B900002221340F1D17B689B6A002B00D19CE0AC
:101BA0003B6A0C2B00D175E07B689B6A022B56D1F7
:101BB000094B094A126810490A401A60FFF76EF88B
:101BC0000300BB611AE0FFF769F80200BB69D31A92
:101BD000022B13D9032381E000100240FFFEFFFF18
:101BE00000700040FFFBFFFF88130000FFFFFFEFC6
:101BF00000000140FFDFFFFFFFFFFFFE394B1A68C7
:101C000080239B041340DED1364A364BDB683649CD
:101C100019407B68D86A7B681B6B18437B685B6BD9
:101C200003430B43D3602F4B2E4A12688021490493
:101C30000A431A60FFF732F80300BB6108E0FFF7C0
:101C40002DF80200BB69D31A022B01D9032345E00A
:101C5000244B1A6880239B041340F0D03DE0214BB5
:101C6000204A126821490A401A60FFF717F803005A
:101C7000BB6108E0FFF712F80200BB69D31A022B20
:101C800001D903232AE0174B1A6880239B041340D1
:101C9000F0D122E07B689B6A012B01D101231DE07A
:101CA000104BDB68FB61FA6980235B021A407B689A
:101CB000DB6A9A420FD1FA69F0239B031A407B68D2
:101CC0001B6B9A4207D1FA69C0231B041A407B6838
:101CD0005B6B9A4201D0012300E000231800BD464F
:101CE0000BB090BD00100240FFFF02FFFFFFFFFEA0
:101CF00090B585B000AF786039607B68002B01D16A
:101D0000012328E1964B1B6801221A403B689A4246
:101D10001ED2934B924A126801218A4311003A68FD
:101D20000A431A60FEF7BAFF0300FB6009E0FEF702
:101D3000B5FF0200FB68D31A8A4A934201D90323F4
:101D400009E1874B1B6801221A403B689A42EED199
:101D50007B681B680222134009D0834A824BDB68F0
:101D6000F0218B4319007B689B680B43D3607B6831
:101D70001B680122134000D189E07B685B68022B5D
:101D800007D1794B1A6880239B02134020D101238D
:101D9000E1E07B685B68032B07D1734B1A688023F3
:101DA0009B04134014D10123D5E07B685B68012BB1
:101DB00006D16D4B1B680422134009D10123CAE0F0
:101DC000694B1A6880239B00134001D10123C2E0B4
:101DD000654A654BDB6803218B4319007B685B68B0
:101DE0000B43D360FEF75AFF0300FB607B685B6820
:101DF000022B11D109E0FEF751FF0200FB68D31A54
:101E0000584A934201D90323A5E0574BDB680C22C3
:101E10001340082BEFD13AE07B685B68032B11D1AC
:101E200009E0FEF73BFF0200FB68D31A4D4A9342DC
:101E300001D903238FE04C4BDB680C2213400C2BA1
:101E4000EFD124E07B685B68012B1BD109E0FEF732
:101E500025FF0200FB68D31A424A934201D90323AB
:101E600079E0414BDB680C221340042BEFD10EE0EC
:101E7000FEF714FF0200FB68D31A3A4A934201D9D5
:101E8000032368E0384BDB680C221340F0D1344B5D
:101E90001B6801221A403B689A421ED9304B304AD7
:101EA000126801218A4311003A680A431A60FEF75A
:101EB000F5FE0300FB6009E0FEF7F0FE0200FB68A0
:101EC000D31A284A934201D9032344E0244B1B68C8
:101ED00001221A403B689A42EED17B681B680422BB
:101EE000134008D0204A204BDB68204919407B680A
:101EF000DB680B43D3607B681B680822134009D062
:101F0000194A194BDB681A4919407B681B69DB00C9
:101F10000B43D36000F034F80100134BDB681B095E
:101F20000F221340134AD35C0A00DA40124B1A60A6
:101F3000124B1B680B22BC181800FEF769FE030049
:101F400023700B23FB181B78002B03D00B23FB18EB
:101F50001B7800E000231800BD4605B090BDC046C8
:101F6000002002408813000000100240FFF8FFFF2D
:101F7000FFC7FFFF6C3B0008080000200C0000209A
:101F8000F0B58FB000AF4A4BDB68FB62FA6A0C23F6
:101F90001340082B0FD00C2B10D0042B00D073E073
:101FA000434B1B681022134002D0424B3B6379E045
:101FB000414B3B6376E0414B3B6373E0FB6A9A0C19
:101FC0000F231A403E4B9B5CBB62FB6A9A0D0323B6
:101FD000134001337B62364BDA6880235B02134087
:101FE00019D0BB6ABB610023FB61344A0023B86986
:101FF000F969FEF735F903000C00180021007B6A2F
:102000003B6100237B613A697B69FEF709F90300B4
:102010000C007B6335E0264B1B681022134019D05F
:10202000BB6ABB600023FB60224A0023B868F968E2
:10203000FEF716F903000C00180021007B6A3B60D4
:1020400000237B603A687B68FEF7EAF803000C0027
:102050007B6316E0BB6A180000231900164A0023B0
:10206000FEF7FEF803000C00180021007B6A1D003B
:1020700000231E002A003300FEF7D2F803000C00F4
:102080007B637B6B3B630DE0094B5B685B0B07225B
:1020900013403B623B6A0133802212029A401300D4
:1020A0003B63C0463B6B1800BD460FB0F0BDC04659
:1020B0000010024000093D000024F40000127A00E4
:1020C000843B000880B500AF024B1B681800BD467A
:1020D00080BDC0460800002080B500AFFFF7F2FFCA
:1020E0000100064BDB681B0A07221340044AD35C3D
:1020F000D9400B001800BD4680BDC046001002400C
:102100007C3B000880B500AFFFF7DCFF0100064B09
:10211000DB68DB0A07221340044AD35CD9400B007A
:102120001800BD4680BDC046001002407C3B000840
:1021300080B586B000AF78601723FB1800221A70B4
:102140007B681B682022134006D17B681A688023B5
:102150001B01134000D1D8E0994B9A6B80235B059B
:1021600013400AD1964B964A926B802149050A4347
:102170009A631723FB1801221A70924B1A68802366
:102180005B0013401AD18F4B8E4A126880214900A0
:102190000A431A60FEF782FD03003B6108E0FEF788
:1021A0007DFD02003B69D31A642B01D9032303E1AF
:1021B000844B1A6880235B001340F0D0804B1A6870
:1021C000C0239B031340FB607B685A68C0239B03BA
:1021D0001A40FB689A4207D17B689A68C0239B0328
:1021E0001A40FB689A4213D07B685A68C0239B024E
:1021F0001A40C0239B029A420AD1714B1A6880236D
:102200009B021A4080239B029A4201D10123D3E012
:102210006B4B1A6DC0239B021340FB60FB68002BC5
:1022200049D07B685A68C0239B021A40FB689A42D7
:1022300004D07B681B68202213400DD17B689A680C
:10224000C0239B021A40FB689A4234D07B681A680C
:1022500080231B0113402ED0594B1B6D5A4A13404B
:10226000FB60574B564A126D802109030A431A65D9
:10227000534B534A126D55490A401A65504BFA6840
:102280001A65FA6880235B00134014D0FEF706FD40
:1022900003003B6109E0FEF701FD02003B69D31A30
:1022A0004B4A934201D9032386E0454B1A6D8023A4
:1022B0009B001340EFD07B685A68C0239B021A40F2
:1022C000C0239B029A420BD13D4A3D4B1B684149BA
:1022D00019407B685868C0239B0303400B4313607D
:1022E000374A374B196D7B685868C0239B020340FF
:1022F0000B4313651723FB181B78012B05D1304BBB
:102300002F4A926B34490A409A637B681B6801220A
:10231000134009D02A4A2A4BDB6C03218B43190056
:102320007B68DB680B43D3647B681B680222134025
:1023300009D0234A224BDB6C0C218B4319007B68AC
:102340001B690B43D3647B681B680422134008D0CD
:102350001B4A1B4BDB6C214919407B685B690B43B3
:10236000D3647B681B680822134008D0144A144BBE
:10237000DB6C1B4919407B689B690B43D3647B680A
:102380001B684022134008D00D4A0D4BDB6C1549E9
:1023900019407B681B6A0B43D3647B681B688022EF
:1023A000134008D0064A064BDB6C0F4919407B6886
:1023B000DB690B43D36400231800BD4606B080BD23
:1023C0000010024000700040FFFFFCFFFFFFF7FF1E
:1023D00088130000FFFFCFFFFFFFFFEFFFF3FFFFBA
:1023E000FFCFFFFFFFFFFFFBFFFFF3FF80B582B0D2
:1023F00000AF78607B68002B01D1012344E07B684B
:102400009B6F002B07D17B687422002199547B6855
:102410001800FEF7F1FA7B6824229A677B681B6834
:102420007A681268126801218A431A607B68180072
:1024300000F034FC0300012B01D1012324E07B6870
:102440005B6A002B03D07B68180000F0CBFE7B6832
:102450001B687A68126852680D490A405A607B68A6
:102460001B687A68126892682A218A439A607B689E
:102470001B687A681268126801210A431A607B6837
:10248000180000F05BFF03001800BD4602B080BDDD
:10249000FFB7FFFF80B58AB002AFF860B9603B605C
:1024A000BB1D1A80FB689B6F202B00D094E0BB689B
:1024B000002B03D0BB1D1B88002B01D101238CE016
:1024C000FB689A6880235B019A4209D1FB681B690B
:1024D000002B05D1BB680122134001D001237CE011
:1024E000FB6874229B5C012B01D1022375E0FB6821
:1024F000742201219954FB68802200219950FB68C5
:1025000021229A67FEF7CAFB03007B61FB68BA1DB4
:10251000502112885A52FB68BA1D522112885A5211
:10252000FB689A6880235B019A4208D1FB681B69AB
:10253000002B04D10023FB61BB68BB6103E0BB68D7
:10254000FB610023BB61FB687422002199542BE0DE
:102550007A69F8683B68009313000022802100F03C
:1025600037FF031E01D0032337E0FB69002B0AD19C
:10257000FB681B68BA691288D205D20D9A62BB69E2
:102580000233BB6107E0FB681B68FA6912789A6244
:10259000FB690133FB61FB6852229B5A9BB2013BF2
:1025A00099B2FB6852229952FB6852229B5A9BB205
:1025B000002BCDD17A69F8683B68009313000022A4
:1025C000402100F005FF031E01D0032305E0FB6856
:1025D00020229A67002300E002231800BD4608B0BD
:1025E00080BD000080B588B000AFF860B960BB1D49
:1025F0001A80FB68DB6F202B53D1BB68002B03D004
:10260000BB1D1B88002B01D101234BE0FB689A689E
:1026100080235B019A4209D1FB681B69002B05D11D
:10262000BB680122134001D001233BE0FB68742208
:102630009B5C012B01D1022334E0FB687422012151
:102640009954FB6800221A66FB681B68174A93427C
:102650001ED0FB681B685A6880231B04134017D0E8
:10266000EFF310833B613B69FB6101237B617B6975
:1026700083F31088FB681B68FA681268126880216F
:10268000C9040A431A60FB69BB61BB6983F3108804
:10269000BB1D1A88B968FB68180000F055FF0300DD
:1026A00000E002231800BD4608B080BD004800408D
:1026B00080B5AAB000AF78607B681B68DB69A42294
:1026C000BA1813607B681B681B68A022BA181360D5
:1026D0007B681B689B689C22BA181360A423FB18B4
:1026E0001B689B4A13409822BA1813609823FB1862
:1026F0001B68002B16D1A423FB181B682022134053
:1027000010D0A023FB181B68202213400AD07B683E
:102710005B6E002B00D194E27B685B6E7A681000E0
:1027200098478EE29823FB181B68002B00D115E117
:102730009C23FB181B680122134006D1A023FB1821
:102740001B68844A134000D108E1A423FB181B68CE
:102750000122134012D0A023FB181A6880235B00CB
:1027600013400BD07B681B6801221A627B688022B1
:102770009B5801221A437B6880215A50A423FB18DE
:102780001B680222134011D09C23FB181B680122F6
:1027900013400BD07B681B6802221A627B68802280
:1027A0009B5804221A437B6880215A50A423FB18AB
:1027B0001B680422134011D09C23FB181B680122C4
:1027C00013400BD07B681B6804221A627B6880224E
:1027D0009B5802221A437B6880215A50A423FB187D
:1027E0001B680822134017D0A023FB181B68202267
:1027F000134005D19C23FB181B68012213400BD00A
:102800007B681B6808221A627B6880229B5808221A
:102810001A437B6880215A50A423FB181A6880232E
:102820001B01134013D0A023FB181A688023DB047C
:1028300013400CD07B681B68802212011A627B68EF
:1028400080229B5820221A437B6880215A507B6843
:1028500080229B58002B00D1F5E1A423FB181B68B4
:10286000202213400ED0A023FB181B682022134007
:1028700008D07B685B6E002B04D07B685B6E7A6847
:10288000100098477B6880229B589422BA181360E6
:102890007B681B689B6840221340402B05D0942323
:1028A000FB181B682822134046D07B68180000F0F4
:1028B000F7FE7B681B689B6840221340402B36D193
:1028C000EFF310833B663B6E9022BA18136001232E
:1028D0007B667B6E83F310887B681B687A6812685E
:1028E000926840218A439A609023FB181B68BB665C
:1028F000BB6E83F310887B681B6F002B12D07B6844
:102900001B6F154A9A637B681B6F1800FEF78AFBE2
:10291000031E1AD07B681B6F9A6B7B681B6F1800B5
:10292000904712E07B68180000F0A4F90DE07B6886
:10293000180000F09FF908E07B68180000F09AF991
:102940007B688022002199507DE1C0467BE1C04632
:102950000F08000020010004593700087B681B6E37
:10296000012B00D02DE1A423FB181B68102213407B
:1029700000D126E1A023FB181B681022134000D1D0
:102980001FE17B681B6810221A627B681B689B68CA
:1029900040221340402B00D0A4E07B681B6F1B68D3
:1029A0005A688E23FB181A808E23FB181B88002B75
:1029B00000D14AE17B6858229B5A8E22BA181288AD
:1029C0009A4200D341E17B688E22BA185A211288BC
:1029D0005A527B681B6F1B681B682022134072D100
:1029E000EFF310833B633B6B8822BA18136001231B
:1029F0007B637B6B83F310887B681B687A68126843
:102A0000126896490A401A608823FB181B68BB634A
:102A1000BB6B83F31088EFF31083FB63FB6B8422A3
:102A2000BA18136001233B643B6C83F310887B6806
:102A30001B687A681268926801218A439A6084232D
:102A4000FB181B687B647B6C83F31088EFF31083A7
:102A5000BB64BB6C8022BA1813600123FB64FB6C5F
:102A600083F310887B681B687A681268926840213B
:102A70008A439A608023FB181B683B653B6D83F398
:102A800010887B682022DA677B6800221A66EFF3E1
:102A900010837B657B6DFB670123BB65BB6D83F397
:102AA00010887B681B687A681268126810218A4354
:102AB0001A60FB6FFB65FB6D83F310887B681B6FEF
:102AC0001800FEF76FFA7B6858229A5A7B685A21E1
:102AD0005B5A9BB2D31A9AB27B681100180000F0BF
:102AE000D1F8B2E07B685822995A7B685A229B5AE7
:102AF0009AB27A23FB188A1A1A807B685A229B5A48
:102B00009BB2002B00D1A2E07A23FB181B88002B7C
:102B100000D19CE0EFF31083FB60FB687B6701232F
:102B20003B613B6983F310887B681B687A68126895
:102B300012684B490A401A607B6F7B617B6983F3A3
:102B40001088EFF31083BB61BB693B670123FB6116
:102B5000FB6983F310887B681B687A681268926847
:102B600001218A439A603B6F3B623B6A83F3108882
:102B70007B682022DA677B6800221A667B68002265
:102B80005A66EFF310837B627B6AFB660123BB62AC
:102B9000BB6A83F310887B681B687A6812681268C6
:102BA00010218A431A60FB6EFB62FB6A83F3108874
:102BB0007A23FB181A887B681100180000F062F86D
:102BC00045E0A423FB181A6880235B03134010D050
:102BD0009C23FB181A688023DB03134009D07B6811
:102BE0001B68802252031A627B68180000F054FFB1
:102BF00030E0A423FB181B68802213400FD0A023D1
:102C0000FB181B688022134009D07B689B6E002B49
:102C10001FD07B689B6E7A681000984719E0A42348
:102C2000FB181B684022134014D0A023FB181B681C
:102C3000402213400ED07B68180000F0A4FDC0466F
:102C400008E0C04606E0C04604E0C04602E0C046D8
:102C500000E0C046BD462AB080BDC046FFFEFFFF73
:102C6000DFFEFFFF80B582B000AF7860C046BD4692
:102C700002B080BD80B582B000AF7860C046BD466E
:102C800002B080BD80B582B000AF78600A00BB1C86
:102C90001A80C046BD4602B080BD0000B0B58EB0FF
:102CA00000AFF8611A2318229446BC446344002202
:102CB0001A70FB699A68FB691B691A43FB695B69B7
:102CC0001A43FB69DB6913437B63FB691B68FA6981
:102CD00012681268CA4911407A6B0A431A60FB698C
:102CE0001B68FA6912685268C6491140FA69D268CD
:102CF0000A435A60FB699B697B63FB691B68C24A94
:102D0000934204D0FB691B6A7A6B13437B63FB69B4
:102D10001B68FA6912689268BC4911407A6B0A43D1
:102D20009A60FB691B68BA4A934234D1B94BDB6C99
:102D300003221340012B15D004D3022B0AD0032BFE
:102D400018D01FE01B2318229446BC446344012280
:102D50001A70ABE01B2318229446BC446344022241
:102D60001A70A3E01B2318229446BC446344042237
:102D70001A709BE01B2318229446BC44634408222B
:102D80001A7093E01B2318229446BC44634410221B
:102D90001A70C0468AE0FB691B689F4A934237D18C
:102DA0009C4BDB6C0C221340042B18D002D8002B58
:102DB00005D024E0082B0AD00C2B18D01FE01B23D1
:102DC00018229446BC44634400221A706EE01B2310
:102DD00018229446BC44634402221A7066E01B2306
:102DE00018229446BC44634404221A705EE01B23FC
:102DF00018229446BC44634408221A7056E01B23F0
:102E000018229446BC44634410221A70C0464DE018
:102E1000FB691B687C4A934241D17E4BDA6CC0232C
:102E20001B0113408022D20093421FD08022D20087
:102E3000934202D8002B09D028E08022120193424D
:102E40000CD0C0221201934218D01FE01B2318227D
:102E50009446BC44634400221A7027E01B231822C6
:102E60009446BC44634402221A701FE01B231822BC
:102E70009446BC44634404221A7017E01B231822B2
:102E80009446BC44634408221A700FE01B231822A6
:102E90009446BC44634410221A70C04606E01B23CB
:102EA00018229446BC44634410221A70FB691B68C4
:102EB000554A934200D085E01B2318229446BC4417
:102EC00063441B78022B0DD002DC002B05D01DE0E3
:102ED000042B12D0082B15D018E0FFF7FDF80300E3
:102EE000FB621DE04B4B1B681022134002D04B4B82
:102EF000FB6215E04A4BFB6212E0FFF741F803006A
:102F0000FB620DE080231B02FB6209E00023FB62F1
:102F10001A2318229446BC44634401221A70C04606
:102F2000FB6A002B00D143E1FB695A6813005B0088
:102F30009A18FB6A9A4205D8FB695B681A03FB6A18
:102F40009A4207D21A2318229446BC4463440122B1
:102F50001A702DE1FB6A3B6100237B6139697A6954
:102F60000B001B0E100005021D430B001C02FB6929
:102F70005B685B08BB600023FB60B868F9680019F8
:102F80006941FB695B683B6000237B603A687B6852
:102F9000FDF746F903000C00BB62BB6A214A93426D
:102FA00008D9BB6A204A934204D8FB691B68BA6AF5
:102FB000DA60FDE01A2318229446BC4463440122DF
:102FC0001A70F5E0FB69DA6980231B029A4200D08F
:102FD00095E01B2318229446BC4463441B78082BBD
:102FE0003AD89A00114BD3181B689F46FFF774F824
:102FF0000300FB623AE0FFF785F80300FB6235E06F
:10300000F369FFEFFFCFFFFF00480040FFF4FFFF31
:1030100000380140001002400044004000093D001B
:103020000024F400FF020000FFFF0F00903B0008A7
:10303000674B1B681022134002D0664BFB6215E001
:10304000654BFB6212E0FEF79BFF0300FB620DE0A5
:1030500080231B02FB6209E00023FB621A23182273
:103060009446BC44634401221A70C046FB6A002B9C
:1030700000D19DE0FB6A5A00FB695B685B08D218CF
:10308000FB695B6819001000FDF73EF803009BB276
:10309000BB62BB6A0F2B2AD9BB6A504A934226D81F
:1030A000BB6A9AB20E2318218C46BC4463440F219C
:1030B0008A431A80BB6A5B089BB20722134099B20D
:1030C0000E2318229446BC4463440E2218208446E2
:1030D000BC44624412880A431A80FB691B680E22B2
:1030E00018218C46BC4462441288DA6060E01A23DE
:1030F00018229446BC44634401221A7058E01B23F2
:1031000018229446BC4463441B78082B22D89A00AA
:10311000334BD3181B689F46FEF7DEFF0300FB62AC
:1031200022E0FEF7EFFF0300FB621DE0284B1B6867
:103130001022134002D0274BFB6215E0264BFB62A6
:1031400012E0FEF71DFF0300FB620DE080231B026F
:10315000FB6209E00023FB621A2318229446BC4458
:10316000634401221A70C046FB6A002B20D0FB6921
:103170005B685A08FB6AD218FB695B68190010008B
:10318000FCF7C2FF03009BB2BB62BB6A0F2B08D9DE
:10319000BB6A124A934204D8FB691B68BA6ADA60B8
:1031A00006E01A2318229446BC44634401221A7094
:1031B000FB6900225A66FB6900229A661A231822CC
:1031C0009446BC4463441B781800BD460EB0B0BDA5
:1031D0000010024000093D000024F400FFFF000041
:1031E000B43B000880B582B000AF78607B685B6A52
:1031F000012213400AD07B681B687A681268526803
:10320000454911407A68926A0A435A607B685B6A52
:10321000022213400AD07B681B687A6812685268E1
:103220003E4911407A68D26A0A435A607B685B6AF9
:10323000042213400AD07B681B687A6812685268BF
:10324000374911407A68126B0A435A607B685B6A9F
:10325000082213400AD07B681B687A68126852689B
:10326000304911407A68526B0A435A607B685B6A46
:10327000102213400AD07B681B687A681268926833
:10328000294911407A68926B0A439A607B685B6AAD
:10329000202213400AD07B681B687A681268926803
:1032A000224911407A68D26B0A439A607B685B6A54
:1032B000402213401BD07B681B687A6812685268F2
:1032C0001B4911407A68126C0A435A607B681A6C79
:1032D00080235B039A420AD17B681B687A68126874
:1032E0005268144911407A68526C0A435A607B68EC
:1032F0005B6A802213400AD07B681B687A68126878
:1033000052680D4911407A68926C0A435A60C0466F
:10331000BD4602B080BDC046FFFFFDFFFFFFFEFFC0
:10332000FFFFFBFFFF7FFFFFFFEFFFFFFFDFFFFF61
:10333000FFFFEFFFFFFF9FFFFFFFF7FF80B586B0A6
:1033400002AF78607B68802200219950FDF7A6FCCF
:103350000300FB607B681B681B6808221340082B76
:103360000DD1FA68802399037868184B00931300F5
:10337000002200F02DF8031E01D0032322E07B6819
:103380001B681B6804221340042B0DD1FA688023AC
:10339000D90378680D4B00931300002200F018F851
:1033A000031E01D003230DE07B6820229A677B680F
:1033B0002022DA677B6800221A667B68742200216B
:1033C000995400231800BD4604B080BDFFFFFF01E3
:1033D00080B594B000AFF860B9603B60FB1D1A7017
:1033E0009BE0BB6D013300D197E0FDF757FC020075
:1033F0003B68D21ABB6D9A4202D8BB6D002B39D103
:10340000EFF31083BB62BB6A7B640123FB62FB6A40
:1034100083F31088FB681B68FA68126812684949D0
:103420000A401A607B6C3B633B6B83F31088EFF3BD
:1034300010837B637B6B3B640123BB63BB6B83F3B8
:103440001088FB681B68FA681268926801218A4339
:103450009A603B6CFB63FB6B83F31088FB68202254
:103460009A67FB682022DA67FB687422002199546E
:10347000032363E0FB681B681B68042213404CD0E5
:10348000FB681B68DA6980231B011A4080231B013B
:103490009A4242D1FB681B68802212011A62EFF344
:1034A00010833B613B69FB6401237B617B6983F390
:1034B0001088FB681B68FA681268126821490A4084
:1034C0001A60FB6CBB61BB6983F31088EFF3108358
:1034D000FB61FB69BB6401233B623B6A83F3108899
:1034E000FB681B68FA681268926801218A439A6037
:1034F000BB6C7B627B6A83F31088FB6820229A672F
:10350000FB682022DA67FB68802220219950FB6843
:10351000742200219954032310E0FB681B68DB69C7
:10352000BA681A40BB68D31A5A425341DBB21A0038
:10353000FB1D1B789A4200D153E700231800BD46BB
:1035400014B080BD5FFEFFFF80B58CB000AFF860A7
:10355000B960BB1D1A80FB68BA685A65FB68BA1D62
:10356000582112885A52FB68BA1D5A2112885A52A1
:10357000FB6800225A66FB689A6880235B019A42C6
:103580000DD1FB681B69002B04D1FB685C2241490B
:1035900099522EE0FB685C22FF21995229E0FB68DA
:1035A0009B68002B0DD1FB681B69002B04D1FB68C5
:1035B0005C22FF2199521CE0FB685C227F2199521A
:1035C00017E0FB689A6880235B059A420DD1FB687F
:1035D0001B69002B04D1FB685C227F21995208E013
:1035E000FB685C223F21995203E0FB685C220021CA
:1035F0009952FB68802200219950FB682222DA67E9
:10360000EFF31083FB61FB69FB6201233B623B6AC2
:1036100083F31088FB681B68FA68126892680121BE
:103620000A439A60FB6A7B627B6A83F31088FB68BB
:103630009A6880235B019A4207D1FB681B69002BC3
:1036400003D1FB68144A5A6602E0FB68134A5A66C3
:10365000FB68742200219954EFF310833B613B69AE
:10366000BB6201237B617B6983F31088FB681B6865
:10367000FA6812681268902149000A431A60BB6A0E
:10368000BB61BB6983F3108800231800BD460CB0F2
:1036900080BDC046FF01000039390008D937000855
:1036A00080B58EB000AF7860EFF310837B617B69EB
:1036B0007B630123BB61BB6983F310887B681B6854
:1036C0007A681268126823490A401A607B6BFB61B2
:1036D000FB6983F31088EFF310833B623B6A3B6323
:1036E00001237B627B6A83F310887B681B687A689E
:1036F0001268926801218A439A603B6BBB62BB6A85
:1037000083F310887B681B6E012B16D1EFF31083B7
:10371000BB60BB68FB620123FB60FB6883F310881E
:103720007B681B687A681268126810218A431A60E5
:10373000FB6A3B613B6983F310887B682022DA6770
:103740007B6800221A667B6800225A66C046BD4626
:103750000EB080BDDFFEFFFF80B584B000AF7860A3
:103760007B689B6AFB60FB685A2200219952FB68C8
:10377000522200219952FB681800FFF77BFAC046DD
:10378000BD4604B080BD80B586B000AF7860EFF371
:103790001083BB60BB687B610123FB60FB6883F324
:1037A00010887B681B687A681268126840218A4317
:1037B0001A607B693B613B6983F310887B68202238
:1037C0009A677B6800229A667B681800FFF74AFABE
:1037D000C046BD4606B080BD80B590B000AF7860F1
:1037E0003E23FB187A685C21525A1A807B68DB6F93
:1037F000222B00D091E07B681B685A6A3C23FB189F
:103800001A807B685B6D3C22BA181288D2B23E21C6
:1038100079180988C9B20A40D2B21A707B685B6D08
:103820005A1C7B685A657B685A229B5A9BB2013BA3
:1038300099B27B685A2299527B685A229B5A9BB252
:10384000002B72D1EFF31083BB61BB69BB63012313
:10385000FB61FB6983F310887B681B687A681268D8
:10386000126834490A401A60BB6B3B623B6A83F3BF
:103870001088EFF310837B627B6A7B630123BB625A
:10388000BB6A83F310887B681B687A681268926849
:1038900001218A439A607B6BFB62FB6A83F3108889
:1038A0007B682022DA677B6800225A667B681B6E81
:1038B000012B2DD17B6800221A66EFF31083FB6089
:1038C000FB683B6301233B613B6983F310887B68A2
:1038D0001B687A681268126810218A431A603B6B71
:1038E0007B617B6983F310887B681B68DB6910222E
:1038F0001340102B03D17B681B6810221A627B686F
:1039000058229A5A7B6811001800FFF7BBF90CE0A7
:103910007B681800FDF73EF807E07B681B687A6853
:103920001268926908210A439A61C046BD4610B0E8
:1039300080BDC046DFFEFFFF80B590B000AF78606D
:103940003E23FB187A685C21525A1A807B68DB6F31
:10395000222B00D091E07B681B685A6A3C23FB183D
:103960001A807B685B6DBB633C23FB183E22BA1850
:103970001B88128813409AB2BB6B1A807B685B6D00
:103980009A1C7B685A657B685A229B5A9BB2013B02
:1039900099B27B685A2299527B685A229B5A9BB2F1
:1039A000002B72D1EFF310837B617B697B63012372
:1039B000BB61BB6983F310887B681B687A681268F7
:1039C000126834490A401A607B6BFB61FB6983F320
:1039D0001088EFF310833B623B6A3B6301237B62F9
:1039E0007B6A83F310887B681B687A681268926828
:1039F00001218A439A603B6BBB62BB6A83F31088E8
:103A00007B682022DA677B6800225A667B681B6E1F
:103A1000012B2DD17B6800221A66EFF31083BB6067
:103A2000BB68FB620123FB60FB6883F310887B6843
:103A30001B687A681268126810218A431A60FB6A50
:103A40003B613B6983F310887B681B68DB6910224C
:103A50001340102B03D17B681B6810221A627B680D
:103A600058229A5A7B6811001800FFF70BF90CE0F6
:103A70007B681800FCF78EFF07E07B681B687A689C
:103A80001268926908210A439A61C046BD4610B087
:103A900080BDC046DFFEFFFF80B582B000AF78601A
:103AA000C046BD4602B080BD0D4885460D480E4952
:103AB0000E4A002302E0D458C4500433C4188C4288
:103AC000F9D30B4A0B4C002301E013600432A242ED
:103AD000FBD3FDF777F800F011F8FCF7D5FCFEE713
:103AE000002000200000002014000020E83B000817
:103AF0001400002070010020FEE7000070B50026D1
:103B00000C4D0D4C641BA410A64209D1002600F0F8
:103B100021F80A4D0A4C641BA410A64205D170BDC1
:103B2000B300EB5898470136EEE7B300EB589847DF
:103B30000136F2E7E03B0008E03B0008E03B00080C
:103B4000E43B000803008218934200D170471970CB
:103B50000133F9E7F8B5C046F8BC08BC9E4670478B
:0C3B6000F8B5C046F8BC08BC9E46704793
:103B6C000000000000000000010203040607080921
:103B7C000000000001020304030406080C101820C6
:103B8C0030000000EC2F0008F62F00083030000841
:103B9C0058300008463000085830000858300008EB
:103BAC005830000850300008183100082231000845
:103BBC002C310008543100084231000854310008FF
:0C3BCC0054310008543100084C3100084E
:083BD800DCC6FF7F01000000C4
:043BE000E9000008F0
:043BE400C100000814
:103BE80067656C0D0A00000000002000040000005A
:043BF80001000000C8
:0400000508003AA90C
:00000001FF
